:020000040800F2
:100000000810002069920008A5060008A70600084D
:10001000AB060008AF060008B306000800000000A9
:10002000000000000000000000000000B70600080B
:10003000B906000800000000BB060008BD06000865
:10004000839200088392000883920008839200083C
:100050008392000883920008D50600088392000866
:10006000839200088392000883920008839200081C
:10007000839200088392000883920008839200080C
:1000800083920008839200088392000883920008FC
:1000900083920008839200088392000883920008EC
:1000A00083920008839200088392000883920008DC
:1000B00083920008839200088392000883920008CC
:1000C00083920008839200088392000883920008BC
:1000D00083920008839200088392000883920008AC
:1000E000839200088392000883920008839200089C
:1000F000839200088392000883920008839200088C
:1001000083920008C50600088392000883920008C5
:10011000839200088392000883920008839200086B
:10012000839200088392000883920008CD0600089D
:10013000839200088392000883920008839200084B
:10014000839200088392000883920008839200083B
:10015000839200088392000883920008839200082B
:10016000839200088392000883920008839200081B
:10017000839200088392000883920008839200080B
:100180008392000883920008DFF80CD009F048F948
:10019000004800473704000808100020FC490860A8
:1001A00000BFFB4909680029FBD1704700B595B035
:1001B0000121172006F0B8FA0121084606F0C5FA19
:1001C0000D220621F34806F0F4F80D220621F2482C
:1001D00006F0EFF80D220721EF4806F0EAF80D22AD
:1001E0000021EE4806F0E5F80D220121EB4806F06B
:1001F000E0F80D220421E94806F0DBF80D22062183
:10020000E74806F0D6F80D220521E44806F0D1F8BB
:100210000D220621E14806F0CCF80D220721E04826
:1002200006F0C7F80D220421DA4806F0C2F8C02013
:100230000F9002208DF8400003208DF8410000202F
:100240008DF8420001208DF843000FA9D24806F036
:1002500025F873200F900FA9D04806F01FF8C02092
:100260000F900FA9CE4806F019F850200F900220E9
:100270008DF8400000208DF842000FA9C54806F017
:100280000DF80020ADF84400ADF84600ADF8480088
:100290008020ADF84A004020ADF84C000020ADF8B9
:1002A0004E00ADF8500011A805F06AF9012188054B
:1002B00006F03AFABB4805F01DFA4FF000700090C6
:1002C000B9480190B94802900020039001200490A1
:1002D0000020059006904FF4805007904000089051
:1002E0004011099040020A9004200B9003200C90CA
:1002F00000200D900E906946AA4805F09DFA15B0B1
:1003000000BD00B587B00121480506F040FA012183
:10031000022006F009FA04220921A14806F049F852
:10032000042208219E4806F044F84FF440700590DE
:1003300002208DF8180000208DF8190001208DF89A
:100340001A0000208DF81B0005A9954805F0A6FFAE
:10035000974806F057FE0121954806F0F8FE002068
:10036000ADF808004BF6FF70ADF80A00FE20ADF8BE
:100370000C004FF48060ADF80E000001ADF81000E5
:1003800047F23050019001A9894806F064FE07B099
:1003900000BD10B5FFF7B5FF80221221602000F0EC
:1003A000F1FB08B1FF2010BD00F04FFC63221221C9
:1003B000602000F0E7FB10224021602000F0E2FB0B
:1003C00008221521602000F0DDFBFFF7EFFE002082
:1003D000E9E70EB50121084606F0A6F901218803D8
:1003E00006F0E6F900208DF808008DF80B000120DA
:1003F000019001A9674805F051FF0021084606F069
:10040000C9FD01206B490860002008711020487167
:1004100001208871084605F04FFB06208DF800008A
:1004200001208DF801008DF802008DF80300684668
:1004300005F02FF80EBD604806F0E1F85E48406810
:100440006422B0FBF2F1481EB0F1807F00D31BE0C4
:10045000481E4FF0E022506150170F22002807DAA3
:1004600013071D0E554B00F00F04241F1D5503E00C
:1004700013071C0E524B1C5400BF00204FF0E0220B
:1004800090610720106100BFFFF7A3FF03F045FE56
:100490004FF6FF7003F0C3FF1F2003F039FF00F099
:1004A00039FB03F042FFC0884004040C45A12046FC
:1004B00004F007F8FFF76DFF002846D103F035FF81
:1004C000C0884004040C44A1204603F0FAFFF02346
:1004D0004FF4A0720021084604F00CF803F0DCFE93
:1004E0000121304805F0E2F9012005F0A8F80120CB
:1004F00005F0B4F800F0F3FA00203C49087023E05E
:100500006420FFF74BFE39480078E8B100203749F6
:10051000087037480078012816D1002005F09EF8B1
:1005200000203349087000F01FFAF0234FF4A07246
:100530000021084603F0DEFF03F0AEFE012005F0C7
:100540008DF801202A490870DAE74FF4784003F06B
:10055000DFFE03F0EAFEC0884004040C25A120461B
:1005600003F0AFFF03F0E1FEC0888004040C26A175
:10057000204603F0A6FF03F0D8FEC08800EB800001
:1005800084B227A1204603F09CFF00BFFEE70000D5
:100590000400002000000240000802400010024059
:1005A000000402402864024028000550000010604A
:1005B00000540040080000200001002018ED00E079
:1005C00000E400E020202043616D65726120496EE7
:1005D00069742E2E000000002020202020202020E2
:1005E00020202020202020200000000000000020EB
:1005F0001000002043616D65726120496E69742EA0
:100600002E206661696C7300436865636B207468B3
:10061000652043616D65726120485720000000002D
:100620002020616E642074727920616761696E2098
:10063000000000001FB50020039040208DF804004A
:1006400000208DF8050007208DF8060000208DF8A9
:1006500007008DF8080001A804F00BFC40208DF87D
:10066000000010208DF8010020208DF8020068465F
:1006700004F053FC1E20FFF791FDC02003900122DF
:10068000222103A804F045FB1FBD00BFFEE704487C
:10069000006820B102480068401E014908607047A8
:1006A00004000020704700BFFEE700BFFEE700BF68
:1006B000FEE700BFFEE770477047704710B5FFF7D1
:1006C000E6FF10BD10B503F048F810BD10B503F0FB
:1006D00095F810BD10B5012005F054FA28B101209D
:1006E00005F061FA01200149087010BD00000020EA
:1006F0000CB50020019000907648006840F48030EE
:100700007449086000BF7348006800F4003000902E
:100710000198401C0190009818B90198B0F5A06F9D
:10072000F1D16C48006800F4003010B10120009055
:1007300001E0002000900098012846D16548403033
:10074000006840F0805063494031086062480068AA
:1007500040F48040604908605E48083000685D49A8
:10076000083108600846006840F400400860084608
:10077000006840F4A05008605848091F0860081F2E
:10078000006840F08070091F086000BF5148006891
:1007900000F000700028F9D040F205605049086070
:1007A0004C480830006820F003004A4908310860CE
:1007B0000846006840F00200086000BF4548083065
:1007C000006800F00C000828F8D10CBD10B54548B1
:1007D000006840F47000434908603E48006840F0FB
:1007E00001003C49086000203A4908310860394856
:1007F00000683D490840374908603C48091D0860C9
:10080000081F006820F48020091F0860002031497B
:100810000C310860FFF76CFF4FF000603149803900
:10082000086010BD70B500200022022300240221C0
:10083000284D08352D6805F00C0020B1042806D09D
:10084000082834D107E02A4D2A4E356033E02A4D7E
:10085000284E35602FE01F4D2D1D2D68C5F38054A7
:100860001C4D2D1D2D6805F03F0154B1224DB5FBE7
:10087000F1F5184E361D3668C6F3881605FB06F2EC
:1008800009E01B4DB5FBF1F5124E361D3668C6F377
:10089000881605FB06F20F4D2D1D2D68C5F3014589
:1008A0006D1C6B00B2FBF3F5124E356003E0104D8A
:1008B000104E356000BF00BF064D08352D68C5F3EA
:1008C00003150E4E705D0B4D2D68C540094E356009
:1008D00070BD00000038024000700040084840062B
:1008E000003C024088ED00E0FFFFF6FE10300024DF
:1008F0000024F4001400002000127A0018000020E8
:1009000010B5ADF50A7D4FF0FF340020899077498E
:1009100007F0E1FC18B120460DF50A7D10BD0A2054
:10092000FFF73CFC022272A1684607F0E7FC044690
:1009300084B989AB04227149684607F083FE0446F6
:10094000684607F0E2FF0021084607F0C4FC6B4848
:100950000068E1E7684607F0D8FF0021084607F085
:10096000BAFC4FF0FF30D7E7F0B5ADF5137D4FF08F
:10097000FF350024002600270020929020218AA81D
:1009800008F08BFC5949002007F0A5FC18B1601E47
:100990000DF5137DF0BD0A20FFF700FC574858A164
:1009A00002688AA808F06EFD0A228AA901A807F049
:1009B000A5FC05460DB12846EAE792AB462253490D
:1009C00001A807F03FFE05460021084603F051FC50
:1009D00003F062FC03F065FC00261CE000240EE03E
:1009E00003F05FFC07B2C7F30720012101EB4401CC
:1009F000474A5054002101EB44015754641CB4F59C
:100A0000A07FEDDB92AB4FF42072414901A807F0C3
:100A100019FE0546761CF02EE0DB01A807F075FFF5
:100A200005460021084607F056FC34480068401C83
:100A300032490860FFF764FF2846A9E710B5ADF515
:100A40000A7D4FF0FF3400208990284907F043FCCD
:100A500018B120460DF50A7D10BD0A20FFF79EFB58
:100A6000012223A1684607F049FC044634B36846D6
:100A700007F04BFF0A221EA1684607F03FFC044620
:100A800094B900201D49086089AB0422684607F02C
:100A9000D9FD0446684607F038FF0021084607F0F4
:100AA0001AFC16480068D5E7684607F02EFF0021BB
:100AB000084607F010FC4FF0FF30CBE789AB04226B
:100AC0000E49684607F0D0FC0446684607F01DFF53
:100AD0000021084607F0FFFB08480068BAE710B598
:100AE000FFF7ACFF0549086010BD000010010020B1
:100AF000636F756E7465722E646174002800002047
:100B000070696325642E626D700000002C00002067
:100B1000400300201CB50121082005F005FE4FF41C
:100B20008050009001208DF8040000208DF8050011
:100B30008DF806008DF807006946FE4805F0AEFB0B
:100B40004FF48051FB4805F027FC0A20FFF726FBF5
:100B50004FF48051F74805F01DFC40200090012023
:100B60008DF8040000208DF805008DF806008DF842
:100B700007006946EF4805F091FB4021ED4805F07C
:100B80000BFC1CBD2DE9F04105460E46174642F20E
:100B900010740121E84806F0E6FA00BF06E02000E4
:100BA000A4F1010402D1FF20BDE8F081E349E2484D
:100BB00006F0D1FB0028F2D000222946DE4806F0DC
:100BC000EAFA42F2107405E02000A4F1010401D118
:100BD000FF20E9E7DA49D84806F0BDFB0028F3D04A
:100BE000F1B2D54806F05BFB42F2107405E020003C
:100BF000A4F1010401D1FF20D6E7D149891CCE48D8
:100C000006F0A9FB0028F2D03946CB4806F047FB96
:100C100042F2107405E02000A4F1010401D1FF208C
:100C2000C2E7C749891CC44806F095FB0028F2D0EA
:100C30000121C14806F0A3FA0020B5E710B58022D3
:100C400012216020FFF79EFF10BD10B50220FFF7B4
:100C5000A5FA002211466020FFF794FF0220FFF75B
:100C60009DFA802201216020FFF78CFF0220FFF710
:100C700095FA802202216020FFF784FF0220FFF70F
:100C80008DFA022203216020FFF77CFF0220FFF78C
:100C900085FA032204216020FFF774FF0220FFF78A
:100CA0007DFA012209216020FFF76CFF0220FFF787
:100CB00075FA57220B216020FFF764FF0220FFF72F
:100CC0006DFA61220E216020FFF75CFF0220FFF722
:100CD00065FA40220F216020FFF754FF0220FFF742
:100CE0005DFA012211216020FFF74CFF0220FFF77F
:100CF00055FA622212216020FFF744FF0220FFF71D
:100D00004DFAC72213216020FFF73CFF0220FFF7B6
:100D100045FA3A2214216020FFF734FF0220FFF742
:100D20003DFA242216216020FFF72CFF0220FFF756
:100D300035FA182217216020FFF724FF0220FFF761
:100D40002DFA042218216020FFF71CFF0220FFF774
:100D500025FA012219216020FFF714FF0220FFF776
:100D60001DFA81221A216020FFF70CFF0220FFF7F5
:100D700015FA00221E216020FFF704FF0220FFF772
:100D80000DFA3C2224216020FFF7FCFE0220FFF731
:100D900005FA362225216020FFF7F4FE0220FFF736
:100DA000FDF9722226216020FFF7ECFE0220FFF7FA
:100DB000F5F9082227216020FFF7E4FE0220FFF763
:100DC000EDF9082228216020FFF7DCFE0220FFF762
:100DD000E5F9152229216020FFF7D4FE0220FFF754
:100DE000DDF900222A216020FFF7CCFE0220FFF768
:100DF000D5F900222B216020FFF7C4FE0220FFF767
:100E0000CDF908222C216020FFF7BCFE0220FFF75D
:100E1000C5F9122232216020FFF7B4FE0220FFF74D
:100E2000BDF9002233216020FFF7ACFE0220FFF75E
:100E3000B5F93F2234216020FFF7A4FE0220FFF71E
:100E4000ADF9002235216020FFF79CFE0220FFF75C
:100E5000A5F93A2236216020FFF794FE0220FFF721
:100E60009DF9722238216020FFF78CFE0220FFF7E7
:100E700095F9572239216020FFF784FE0220FFF701
:100E80008DF9CC223A216020FFF77CFE0220FFF78B
:100E900085F904223B216020FFF774FE0220FFF752
:100EA0007DF999223D216020FFF76CFE0220FFF7BB
:100EB00075F902223E216020FFF764FE0220FFF751
:100EC0006DF9C1223F216020FFF75CFE0220FFF791
:100ED00065F9C02240216020FFF754FE0220FFF791
:100EE0005DF9412211466020FFF74CFE0220FFF71A
:100EF00055F9C02242216020FFF744FE0220FFF78F
:100F00004DF90A2243216020FFF73CFE0220FFF743
:100F100045F9F02244216020FFF734FE0220FFF75C
:100F20003DF9462245216020FFF72CFE0220FFF705
:100F300035F907E0000C02400054004001000300B6
:100F400082000700622246216020FFF71BFE02207C
:100F5000FFF724F92A2247216020FFF713FE022021
:100F6000FFF71CF93C2248216020FFF70BFE02200E
:100F7000FFF714F9FC224A216020FFF703FE02204C
:100F8000FFF70CF9FC224B216020FFF7FBFD02204C
:100F9000FFF704F97F224C216020FFF7F3FD0220C8
:100FA000FFF7FCF87F224D216020FFF7EBFD0220C8
:100FB000FFF7F4F87F224E216020FFF7E3FD0220C7
:100FC000FFF7ECF898224F216020FFF7DBFD0220AD
:100FD000FFF7E4F8982250216020FFF7D3FD0220AC
:100FE000FFF7DCF8002251216020FFF7CBFD022043
:100FF000FFF7D4F8282252216020FFF7C3FD02201A
:10100000FFF7CCF8702253216020FFF7BBFD0220D0
:10101000FFF7C4F8982254216020FFF7B3FD0220A7
:10102000FFF7BCF81A2258216020FFF7ABFD022021
:10103000FFF7B4F8852259216020FFF7A3FD0220B5
:10104000FFF7ACF8A9225A216020FFF79BFD022090
:10105000FFF7A4F864225B216020FFF793FD0220D4
:10106000FFF79CF884225C216020FFF78BFD0220B3
:10107000FFF794F853225D216020FFF783FD0220E3
:10108000FFF78CF80E225E216020FFF77BFD022027
:10109000FFF784F8F0225F216020FFF773FD022044
:1010A000FFF77CF8F02260210846FFF76BFD022075
:1010B000FFF774F8F02261216020FFF763FD022042
:1010C000FFF76CF8002262216020FFF75BFD022031
:1010D000FFF764F8002263216020FFF753FD022030
:1010E000FFF75CF8022264216020FFF74BFD02202D
:1010F000FFF754F8202265216020FFF743FD02200E
:10110000FFF74CF8002266216020FFF73BFD02202C
:10111000FFF744F80A2269216020FFF733FD02201F
:10112000FFF73CF85A226B216020FFF72BFD0220CD
:10113000FFF734F804226C216020FFF723FD022022
:10114000FFF72CF855226D216020FFF71BFD0220D0
:10115000FFF724F800226E216020FFF713FD022024
:10116000FFF71CF89D226F216020FFF70BFD022086
:10117000FFF714F8212270216020FFF703FD022001
:10118000FFF70CF8782271216020FFF7FBFC0220AA
:10119000FFF704F80220FFF701F811227221602006
:1011A000FFF7F0FC0220FEF7F9FF0220FEF7F6FF42
:1011B000012273216020FFF7E5FC0220FEF7EEFF1D
:1011C000102274216020FFF7DDFC0220FEF7E6FF0D
:1011D000102275216020FFF7D5FC0220FEF7DEFF0C
:1011E000012276216020FFF7CDFC0220FEF7D6FF1A
:1011F000022277216020FFF7C5FC0220FEF7CEFF18
:1012000012227A216020FFF7BDFC0220FEF7C6FF04
:1012100008227B216020FFF7B5FC0220FEF7BEFF0D
:1012200016227C216020FFF7ADFC0220FEF7B6FFFE
:1012300030227D216020FFF7A5FC0220FEF7AEFFE3
:101240005E227E216020FFF79DFC0220FEF7A6FFB4
:1012500072227F216020FFF795FC0220FEF79EFF9F
:10126000822280216020FFF78DFC0220FEF796FF8E
:101270008E2281216020FFF785FC0220FEF78EFF81
:101280009A2282216020FFF77DFC0220FEF786FF74
:10129000A42283216020FFF775FC0220FEF77EFF69
:1012A000AC2284216020FFF76DFC0220FEF776FF60
:1012B000B82285216020FFF765FC0220FEF76EFF53
:1012C000C32286216020FFF75DFC0220FEF766FF47
:1012D000D62287216020FFF755FC0220FEF75EFF33
:1012E000E62288216020FFF74DFC0220FEF756FF22
:1012F000F22289216020FFF745FC0220FEF74EFF15
:1013000024228A216020FFF73DFC0220FEF746FFE1
:1013100080228C216020FFF735FC0220FEF73EFF83
:101320007D2290216020FFF72DFC0220FEF736FF82
:101330007B2291216020FFF725FC0220FEF72EFF83
:1013400002229D216020FFF71DFC0220FEF726FFF0
:1013500002229E216020FFF715FC0220FEF71EFFEF
:101360007A229F216020FFF70DFC0220FEF716FF76
:101370007922A0216020FFF705FC0220FEF70EFF76
:101380004022A1216020FFF7FDFB0220FEF706FFAF
:101390005022A4216020FFF7F5FB0220FEF7FEFE9D
:1013A0006822A5216020FFF7EDFB0220FEF7F6FE84
:1013B0004A22A6216020FFF7E5FB0220FEF7EEFEA1
:1013C000C122A8216020FFF7DDFB0220FEF7E6FE28
:1013D000EF22A9216020FFF7D5FB0220FEF7DEFEF9
:1013E0009222AA216020FFF7CDFB0220FEF7D6FE55
:1013F0000422AB216020FFF7C5FB0220FEF7CEFEE2
:101400008022AC216020FFF7BDFB0220FEF7C6FE64
:101410008022AD216020FFF7B5FB0220FEF7BEFE63
:101420008022AE216020FFF7ADFB0220FEF7B6FE62
:101430008022AF216020FFF7A5FB0220FEF7AEFE61
:10144000F222B2216020FFF79DFB0220FEF7A6FEEC
:101450002022B3216020FFF795FB0220FEF79EFEBD
:101460002022B4216020FFF78DFB0220FEF796FEBC
:101470000022B5216020FFF785FB0220FEF78EFEDB
:10148000AF22B6216020FFF77DFB0220FEF786FE2B
:10149000AF22B6216020FFF775FB0220FEF77EFE2B
:1014A000AE22BB216020FFF76DFB0220FEF776FE27
:1014B0007F22BC216020FFF765FB0220FEF76EFE55
:1014C0007F22BD216020FFF75DFB0220FEF766FE54
:1014D0007F22BE216020FFF755FB0220FEF75EFE53
:1014E0007F22BF216020FFF74DFB0220FEF756FE52
:1014F0007F22BF216020FFF745FB0220FEF74EFE52
:10150000AA22C0216020FFF73DFB0220FEF746FE25
:10151000C022C1216020FFF735FB0220FEF73EFE0E
:101520000122C2216020FFF72DFB0220FEF736FECC
:101530004E22C3216020FFF725FB0220FEF72EFE7E
:101540000522C6216020FFF71DFB0220FEF726FEC4
:101550008122C7216020FFF715FB0220FEF71EFE47
:10156000E022C9216020FFF70DFB0220FEF716FEE6
:10157000E822CA216020FFF705FB0220FEF70EFEDD
:10158000F022CB216020FFF7FDFA0220FEF706FED5
:10159000D822CC216020FFF7F5FA0220FEF7FEFDED
:1015A0009322CD216020FFF7EDFA0220FEF7F6FD31
:1015B00010BD10B50220FEF7F1FD0022114660209B
:1015C000FFF7E0FA0220FEF7E9FD8022012160200A
:1015D000FFF7D8FA0220FEF7E1FD80220221602009
:1015E000FFF7D0FA0220FEF7D9FD02220321602086
:1015F000FFF7C8FA0220FEF7D1FD03220421602084
:10160000FFF7C0FA0220FEF7C9FD01220921602080
:10161000FFF7B8FA0220FEF7C1FD57220B21602028
:10162000FFF7B0FA0220FEF7B9FD61220E2160201B
:10163000FFF7A8FA0220FEF7B1FD40220F2160203B
:10164000FFF7A0FA0220FEF7A9FD01221121602078
:10165000FFF798FA0220FEF7A1FD62221221602016
:10166000FFF790FA0220FEF799FDC72213216020B0
:10167000FFF788FA0220FEF791FD3A22142160203C
:10168000FFF780FA0220FEF789FD24221621602050
:10169000FFF778FA0220FEF781FD1822172160205B
:1016A000FFF770FA0220FEF779FD0422182160206E
:1016B000FFF768FA0220FEF771FD01221921602070
:1016C000FFF760FA0220FEF769FD81221A216020EF
:1016D000FFF758FA0220FEF761FD20221E2160204C
:1016E000FFF750FA0220FEF759FD3C22242160202A
:1016F000FFF748FA0220FEF751FD3622252160202F
:10170000FFF740FA0220FEF749FD722226216020F1
:10171000FFF738FA0220FEF741FD0822272160205A
:10172000FFF730FA0220FEF739FD08222821602059
:10173000FFF728FA0220FEF731FD1522292160204B
:10174000FFF720FA0220FEF729FD00222A2160205F
:10175000FFF718FA0220FEF721FD00222B2160205E
:10176000FFF710FA0220FEF719FD08222C21602055
:10177000FFF708FA0220FEF711FDA42232216020B3
:10178000FFF700FA0220FEF709FD00223321602056
:10179000FFF7F8F90220FEF701FD3F223421602017
:1017A000FFF7F0F90220FEF7F9FC00223521602056
:1017B000FFF7E8F90220FEF7F1FC3A22362160201B
:1017C000FFF7E0F90220FEF7E9FC722238216020E1
:1017D000FFF7D8F90220FEF7E1FC572239216020FB
:1017E000FFF7D0F90220FEF7D9FCCC223A21602085
:1017F000FFF7C8F90220FEF7D1FC04223B2160204C
:10180000FFF7C0F90220FEF7C9FC99223D216020B4
:10181000FFF7B8F90220FEF7C1FC0E223E2160203E
:10182000FFF7B0F90220FEF7B9FCC1223F2160208A
:10183000FFF7A8F90220FEF7B1FCC022402160208A
:10184000FFF7A0F90220FEF7A9FC41221146602013
:10185000FFF798F90220FEF7A1FCC0224221602088
:10186000FFF790F90220FEF799FC0A22432160203D
:10187000FFF788F90220FEF791FCF0224421602056
:10188000FFF780F90220FEF789FC462245216020FF
:10189000FFF778F90220FEF781FC622246216020E2
:1018A000FFF770F90220FEF779FC2A224721602019
:1018B000FFF768F90220FEF771FC3C224821602006
:1018C000FFF760F90220FEF769FCFC224A21602044
:1018D000FFF758F90220FEF761FCFC224B21602043
:1018E000FFF750F90220FEF759FC7F224C216020BF
:1018F000FFF748F90220FEF751FC7F224D216020BE
:10190000FFF740F90220FEF749FC7F224E216020BC
:10191000FFF738F90220FEF741FC98224F216020A2
:10192000FFF730F90220FEF739FC982250216020A1
:10193000FFF728F90220FEF731FC00225121602038
:10194000FFF720F90220FEF729FC2822522160200F
:10195000FFF718F90220FEF721FC702253216020C6
:10196000FFF710F90220FEF719FC9822542160209D
:10197000FFF708F90220FEF711FC1A225821602017
:10198000FFF700F90220FEF709FC852259216020AB
:10199000FFF7F8F80220FEF701FCA9225A21602087
:1019A000FFF7F0F80220FEF7F9FB64225B216020CC
:1019B000FFF7E8F80220FEF7F1FB84225C216020AB
:1019C000FFF7E0F80220FEF7E9FB53225D216020DB
:1019D000FFF7D8F80220FEF7E1FB0E225E2160201F
:1019E000FFF7D0F80220FEF7D9FBF0225F2160203C
:1019F000FFF7C8F80220FEF7D1FBF022602108466D
:101A0000FFF7C0F80220FEF7C9FBF0226121602039
:101A1000FFF7B8F80220FEF7C1FB00226221602028
:101A2000FFF7B0F80220FEF7B9FB00226321602027
:101A3000FFF7A8F80220FEF7B1FB02226421602024
:101A4000FFF7A0F80220FEF7A9FB20226521602005
:101A5000FFF798F80220FEF7A1FB00226621602024
:101A6000FFF790F80220FEF799FB0A226921602017
:101A7000FFF788F80220FEF791FB5A226B216020C5
:101A8000FFF780F80220FEF789FB04226C2160201A
:101A9000FFF778F80220FEF781FB55226D216020C8
:101AA000FFF770F80220FEF779FB00226E2160201C
:101AB000FFF768F80220FEF771FB9D226F2160207E
:101AC000FFF760F80220FEF769FB212270216020F9
:101AD000FFF758F80220FEF761FB782271216020A1
:101AE000FFF750F80220FEF759FB222272216020F6
:101AF000FFF748F80220FEF751FB02227321602015
:101B0000FFF740F80220FEF749FB10227421602005
:101B1000FFF738F80220FEF741FB10227521602004
:101B2000FFF730F80220FEF739FB01227621602012
:101B3000FFF728F80220FEF731FB02227721602010
:101B4000FFF720F80220FEF729FB12227A216020FD
:101B5000FFF718F80220FEF721FB08227B21602006
:101B6000FFF710F80220FEF719FB16227C216020F7
:101B7000FFF708F80220FEF711FB30227D216020DC
:101B8000FFF700F80220FEF709FB5E227E216020AD
:101B9000FEF7F8FF0220FEF701FB72227F21602092
:101BA000FEF7F0FF0220FEF7F9FA82228021602082
:101BB000FEF7E8FF0220FEF7F1FA8E228121602075
:101BC000FEF7E0FF0220FEF7E9FA9A228221602068
:101BD000FEF7D8FF0220FEF7E1FAA422832160205D
:101BE000FEF7D0FF0220FEF7D9FAAC228421602054
:101BF000FEF7C8FF0220FEF7D1FAB8228521602047
:101C0000FEF7C0FF0220FEF7C9FAC322862160203A
:101C1000FEF7B8FF0220FEF7C1FAD6228721602026
:101C2000FEF7B0FF0220FEF7B9FAE6228821602015
:101C3000FEF7A8FF0220FEF7B1FAF2228921602008
:101C4000FEF7A0FF0220FEF7A9FA24228A216020D5
:101C5000FEF798FF0220FEF7A1FA80228C21602077
:101C6000FEF790FF0220FEF799FA7D229021602076
:101C7000FEF788FF0220FEF791FA7B229121602077
:101C8000FEF780FF0220FEF789FA02229D216020E4
:101C9000FEF778FF0220FEF781FA02229E216020E3
:101CA000FEF770FF0220FEF779FA7A229F2160206A
:101CB000FEF768FF0220FEF771FA7922A02160206A
:101CC000FEF760FF0220FEF769FA4022A1216020A2
:101CD000FEF758FF0220FEF761FA5022A42160208F
:101CE000FEF750FF0220FEF759FA6822A521602076
:101CF000FEF748FF0220FEF751FA4A22A621602093
:101D0000FEF740FF0220FEF749FAC122A821602019
:101D1000FEF738FF0220FEF741FAEF22A9216020EA
:101D2000FEF730FF0220FEF739FA9222AA21602046
:101D3000FEF728FF0220FEF731FA0422AB216020D3
:101D4000FEF720FF0220FEF729FA8022AC21602056
:101D5000FEF718FF0220FEF721FA8022AD21602055
:101D6000FEF710FF0220FEF719FA8022AE21602054
:101D7000FEF708FF0220FEF711FA8022AF21602053
:101D8000FEF700FF0220FEF709FAF222B2216020DE
:101D9000FEF7F8FE0220FEF701FA2022B3216020B0
:101DA000FEF7F0FE0220FEF7F9F92022B4216020B0
:101DB000FEF7E8FE0220FEF7F1F90022B5216020CF
:101DC000FEF7E0FE0220FEF7E9F9AF22B62160201F
:101DD000FEF7D8FE0220FEF7E1F9AF22B62160201F
:101DE000FEF7D0FE0220FEF7D9F9AE22BB2160201B
:101DF000FEF7C8FE0220FEF7D1F97F22BC21602049
:101E0000FEF7C0FE0220FEF7C9F97F22BD21602047
:101E1000FEF7B8FE0220FEF7C1F97F22BE21602046
:101E2000FEF7B0FE0220FEF7B9F97F22BF21602045
:101E3000FEF7A8FE0220FEF7B1F97F22BF21602045
:101E4000FEF7A0FE0220FEF7A9F9AA22C021602019
:101E5000FEF798FE0220FEF7A1F9C022C121602002
:101E6000FEF790FE0220FEF799F90122C2216020C0
:101E7000FEF788FE0220FEF791F94E22C321602072
:101E8000FEF780FE0220FEF789F90522C6216020B8
:101E9000FEF778FE0220FEF781F98222C72160203A
:101EA000FEF770FE0220FEF779F9E022C9216020DA
:101EB000FEF768FE0220FEF771F9E822CA216020D1
:101EC000FEF760FE0220FEF769F9F022CB216020C8
:101ED000FEF758FE0220FEF761F9D822CC216020DF
:101EE000FEF750FE0220FEF759F99322CD21602023
:101EF000FEF748FE0220FEF751F910BD2DE9F04132
:101F000005460E4642F2107400270121674805F08D
:101F10002AF900BF06E02000A4F1010402D1FF204D
:101F2000BDE8F0816249614805F015FA0028F2D059
:101F3000002229465D4805F02EF942F2107405E0B2
:101F40002000A4F1010401D1FF20E9E759495748D5
:101F500005F001FA0028F3D0F1B2544805F09FF9DA
:101F600042F2107405E02000A4F1010401D1FF2029
:101F7000D6E75049891C4D4805F0EDF90028F2D00C
:101F80004A481430008840F4806048491431088081
:101F90000121464805F0E7F842F2107405E0200000
:101FA000A4F1010401D1FF20BAE741493F4805F0FF
:101FB000D2F90028F3D0012229463C4805F0EBF87D
:101FC00042F2107405E02000A4F1010401D1FF20C9
:101FD000A6E73749491C354805F0BDF90028F2D07D
:101FE0000021324805F0DFF842F2107405E02000CD
:101FF000A4F1010401D1FF2092E72D493F312B4884
:1020000005F0A9F90028F2D00121284805F0B7F819
:10201000264805F046F90746384681E710B50446DC
:102020001C216020FFF76AFF20701D216020FFF750
:1020300065FF60700B216020FFF760FFA0700A2130
:102040006020FFF75BFFE07010BD10B5044622462C
:1020500011216020FEF796FD10BD10B50446224602
:1020600012216020FEF78EFD10BD10B504462246F9
:1020700012216020FEF786FD10BD70B504460D46A6
:102080002A4621466020FEF77DFD70BD10B504464E
:10209000224632216020FEF775FD10BD10B50446C2
:1020A000224640216020FEF76DFD10BD0054004027
:1020B000010003008200070010B501F0B2FC10BD62
:1020C0002DE9F04106460027FA48056801E0F94885
:1020D000056805F045000028F9D005F0040030B18E
:1020E0000327042004F031FD3846BDE8F08105F0F7
:1020F000010028B10127012004F027FD3846F4E74C
:1021000004F0A1FCB04202D010273846EDE740F2BF
:10211000FF5004F01AFD002004F09AFC0446E64843
:10212000204008B93846E0E704F0004008B11C2020
:10213000DBE704F0804008B10920D6E704F0005046
:1021400008B10A20D1E704F0805008B10B20CCE799
:1021500004F0006008B10C20C7E704F0806008B10B
:102160000D20C2E704F0807008B10E20BDE704F432
:10217000000008B10F20B8E704F4800008B1102077
:10218000B3E704F4001008B11120AEE704F48010A6
:1021900008B11220A9E704F4002008B11320A4E735
:1021A00004F4802008B114209FE704F4003008B143
:1021B00015209AE704F4803008B1162095E704F45E
:1021C000004008B1172090E704F4804008B11820BF
:1021D0008BE704F4005008B1192086E704F00800EA
:1021E00008B11A2081E738467FE72DE9FC41074610
:1021F0000D46002600240020009001900820AF49E1
:10220000086010204860402088600020C8604FF4BB
:1022100080600861084604F0FAFB1020FFF750FFC9
:10222000044614B12046BDE8FC81A548008800049E
:10223000A249086037204860402088600020C860BC
:102240004FF480600861084604F0E1FB3720FFF797
:1022500037FF04460CB12046E5E74FF0FF309949BF
:10226000086008204860302088600220C860002094
:10227000086101204861084604F0F5FB00208F4901
:10228000086033204860402088600020C8604FF418
:1022900080600861084604F0BAFB3320FFF710FFA6
:1022A00004460CB12046BEE709E04FF4001004F0EC
:1022B00041FC20B104F0FDFB4DF82600761C7D4862
:1022C000006840F22A6108400028EED0082004F09F
:1022D00031FC28B1082004F038FC04242046A2E791
:1022E000022004F027FC28B1022004F02EFC022476
:1022F000204698E7202004F01DFC28B1202004F09F
:1023000024FC062420468EE74FF4007004F012FCF3
:1023100030B14FF4007004F018FC0724204682E727
:1023200040F2FF5004F011FC00980006009901F4FF
:102330007F4140EA0120009901F47F0140EA112029
:10234000009940EA1160686001980006019901F463
:102350007F4140EA0120019901F47F0140EA112008
:10236000019940EA1160286020465CE77CB505468B
:10237000002400200090019004F06AFB00F000703F
:1023800010B10E2420467CBD4D49098888B26946AB
:10239000FFF72BFF04460CB12046F4E7012D36D1A0
:1023A000019800F4802000282ED0454800880004C1
:1023B0004249086037204860402088600020C8609B
:1023C000A8020861084604F022FB3720FFF778FED8
:1023D00004460CB12046D6E70220384908600620A2
:1023E0004860402088600020C8604FF48060086129
:1023F000084604F00CFB0620FFF762FE04460CB111
:102400002046C0E72046BEE725242046BBE70198CA
:1024100000F4803078B32A48008800042749086017
:1024200037204860402088600020C8604FF48060FA
:102430000861084604F0EBFA3720FFF741FE044636
:102440000CB120469FE700201C4908600620486028
:10245000402088600020C8604FF480600861084612
:1024600004F0D5FA0620FFF72BFE04460CB12046F7
:1024700089E7204687E7FFE72524204683E770B5F4
:102480000446002510480068032802D12725284665
:1024900070BD0D48006838B10B480068012803D0B2
:1024A0000948006802283AD1B4F5805F0ED127258B
:1024B0002846EDE7342C014008E0FFFDD807002056
:1024C00078000020EC07002074000020B4F5006FB5
:1024D00014D10120FFF74AFF054605BB0120FB4947
:1024E000087500200860486088604FF40060C8608C
:1024F00000200861084604F060FA10E00020FFF7B1
:1025000035FF05465DB90120F049087500200860D7
:1025100048608860C8600861084604F04EFA2846A2
:10252000B6E770B504460025E94804600720E8498D
:102530004860402088600020C8604FF480600861D7
:10254000084604F064FA0720FFF7BAFD054628465E
:1025500070BD30B5014600200022DE4B1B7881F8AB
:102560004E30DD4B1B88A1F84C30DC4B1B681A0E3B
:1025700093090B70C2F383034B7002F003038B705B
:10258000D64B1B68C3F30742CA70D44B1B88C3F3F6
:1025900007220A71D14B1A784A715B681A0E13012F
:1025A000CB80CE4B5B68C3F30742CB8843EA121360
:1025B000CB8002F00F030B72C84B9B88C3F307223A
:1025C000D3094B72C2F380138B72C2F34013CB72E8
:1025D000C2F300130B7300234B73BE4B1B681BB17C
:1025E000BC4B1B68012B3CD193071B0D0B61BB4BF4
:1025F0001A790B6943EA82030B61B84B9B681A0E88
:102600000B6943EA92130B61C2F3C2030B7502F02C
:1026100007034B75B14B9B68C3F3074253098B7596
:10262000C2F38203CB7593075B0F0B76AB4B1B8911
:10263000C3F307220B7E43EAD2130B760B695B1CB4
:102640004B640C7E4B6CA41C0125A5406B434B6472
:102650000C7A0123A3408B64D1E9113463434B64AA
:1026600021E09C4B1B68022B1DD19C4B1A799306D1
:102670009B0A0B61994B9B681A0E0B6943EA022374
:102680000B61964B9B68C3F307420B6913430B61C5
:10269000924B1B89C3F307220B695B1CDB044B6461
:1026A0004FF400738B64C2F3801301F8193F930653
:1026B0005B0E4B70894B1A7A4B7843EAD2134B70FE
:1026C00002F07F038B70854BDB681A0ED309CB7049
:1026D000C2F341130B71C2F382034B7193071B0FBB
:1026E0008B717E4BDB68C3F307428B7943EA92130D
:1026F0008B71C2F34013CB7100230B7202F0010304
:102700004B72764B9B89C3F30722D3098B72C2F3BA
:102710008013CB72C2F340130B73C2F300134B73DD
:10272000C2F381038B7302F00303CB736B4B1A7BF1
:1027300053080B7401234B74694B1B681A0ECA743F
:102740001939674B1B68C3F307421402CC85644BED
:102750001B88C3F30722CB8D1343CB85604B1A78BC
:1027600014060C635B681A0E0B6B43EA02440C639D
:102770005B4B5B68C3F307420B6B43EA02240C63B9
:10278000574B9B88C3F307220B6B13430B63544BCC
:102790001A7934235A54524B9B681A0E35235A54D3
:1027A0004F4B9B68C3F3074214068C634C4B1B8949
:1027B000C3F307228B6B43EA02448C63484B1A7ABB
:1027C0008B6B43EA02248C63454BDB681A0E8B6BE0
:1027D00013438B63424BDB68C3F307423C235B5CD0
:1027E00043EA12143C235C5413071C0DCC873C4B6A
:1027F0009B89C3F30722CB8F1343CB87384B1A7BBC
:10280000540840235C54012441235C5430BD70B50E
:1028100000253448046801E03248046804F04500AB
:102820000028F9D004F0040028B10325042004F0A6
:102830008CF9284670BD04F0010028B10125012063
:1028400004F083F92846F5E740F2FF5004F07DF9E3
:102850002846EFE72DE9F04106460F464FF0000805
:102860002048056801E01F48056805F0450000287C
:10287000F9D005F0040038B14FF00308042004F04B
:1028800064F94046BDE8F08105F0010030B14FF039
:102890000108012004F059F94046F3E704F0D3F8A9
:1028A000B04203D04FF010084046EBE740F2FF5033
:1028B00004F04BF9002004F0CBF8044604F4604027
:1028C00090B9200C38804046DCE70000C0070020AB
:1028D000D807002074000020780000204007002066
:1028E00050070020342C014004F4005008B113209C
:1028F000C8E704F4804008B11020C3E704F40040A6
:1029000008B10F20BEE74046BCE738B500240120DF
:10291000009004F076F810B92524204638BDFE4812
:102920000068042828D00020FC4908600220486084
:10293000C02088600020C8604FF4806008610846AD
:1029400004F065F8FFF763FF04460CB12046E5E7A5
:10295000002004F07DF8F2490860042004F078F8C3
:10296000EF494860082004F073F8ED4988600C20B6
:1029700004F06EF8EA49C860E748006858B1E648D4
:102980000068012807D0E4480068062803D0E24820
:102990000068022816D10020E04908600320486042
:1029A000402088600020C8604FF4806008610846BD
:1029B00004F02DF869460320FFF74CFF04460CB1E4
:1029C0002046ABE7D448006804282ED0BDF80000AC
:1029D000D4490860BDF800000004D049086009200F
:1029E0004860C02088600020C8604FF480600861A3
:1029F000084604F00CF8FFF70AFF04460CB1204625
:102A00008CE7002004F024F8C7490860042004F093
:102A10001FF8C5494860082004F01AF8C2498860C8
:102A20000C2004F015F8C049C8600024204675E762
:102A300070B50025BD48046801E0BC48046804F096
:102A400045000028F9D004F0040028B10325042033
:102A500004F07BF8284670BD40F2FF5004F075F892
:102A60002846F8E770B500264FF48035AF48046873
:102A700002E06D1EAD48046804F0450008B9002D61
:102A8000F7D115B104F0040028B10326042004F0A6
:102A90005CF8304670BD04F0400028B100264020AC
:102AA00004F053F83046F5E73046F3E770B50025FB
:102AB0004FF4803400E0641E24B1802004F03AF822
:102AC0000028F8D014B90325284670BD40F2FF5005
:102AD00004F03BF82846F8E7F8B500200090002500
:102AE0000024002600277620914908750020086000
:102AF00048608860C8600861084603F05EFF0320F4
:102B000003F07BFF012003F075FF0020834908607C
:102B100048608860C8604FF480600861084603F030
:102B200076FFFFF7C3FF00909DF8000010B19DF8FD
:102B30000000F8BD4FF4D57078490860082048605F
:102B4000402088600020C8604FF48060086108461B
:102B500003F05DFFFFF786FF00909DF8000020B9AD
:102B600001206D490860870712E000206B4908606A
:102B700037204860402088600020C8604FF48060A3
:102B80000861084603F043FF3720FFF799FA0090E9
:102B9000002062490860372048604020886000209B
:102BA000C8604FF480600861084603F030FF3720AA
:102BB000FFF786FA00909DF80000002851D13BE015
:102BC0000020564908603720486040208860002077
:102BD000C8604FF480600861084603F018FF372092
:102BE000FFF76EFA00909DF8000010B19DF800000C
:102BF0009FE75048384349490860292048604020F1
:102C000088600020C8604FF480600861084603F0C7
:102C1000FEFEFFF70DFF00909DF8000010B19DF83B
:102C2000000086E7002003F013FF0546012080EA3C
:102C3000D57080F00106641C1EB94FF6FF70844207
:102C4000BED34FF6FF70844204D31B2000909DF842
:102C500000006EE705F08040050002D002202E49FA
:102C600008609DF8000064E708B50020009000F0BF
:102C70001EFF03F097FEFFF72FFF00909DF8000066
:102C800010B19DF8000008BDFFF73FFE00909DF8D1
:102C9000000010B19DF80000F5E7012024490875F7
:102CA0000020086048608860C8600861084603F03A
:102CB00084FE2148FFF74DFC00909DF8000030B9DC
:102CC0001D49B1F84C100804FFF72BFC00909DF84B
:102CD000000020B94FF40060FFF7D1FB00909DF891
:102CE0000000D0E770B50446002514B92625284613
:102CF00070BD0C4800880004084908600D20486039
:102D0000402088600020C8604FF480600861084659
:102D100003F07DFE0D2011E074000020D807002094
:102D2000500700207800002040070020342C01408C
:102D3000C00700200000108070070020FFF7C0F9D6
:102D400005460DB12846D3E7002003F081FE206040
:102D50002846CDE708B501200090C103F84803F0EC
:102D6000FFFA08B1002000909DF8000008BD08B5EA
:102D700000200090FFF7EEFF012809D16846FFF719
:102D8000B1FF08B1FF2008BD0098C0F34320FAE767
:102D9000FF20F8E710B50424FFF7E9FF0446042CF0
:102DA00001D1002010BDFF2C01D10220FAE7012043
:102DB000F8E710B50024002003F01FFE204610BDE8
:102DC00070B5044600260025002003F041FE00F007
:102DD000007010B10E26304670BD4020D949086001
:102DE00010204860402088600020C8604FF4806058
:102DF0000861084603F00BFE1020FFF761F9064654
:102E00000EB13046E8E7D04800880004CD4908609C
:102E100037204860402088600020C8604FF4806000
:102E20000861084603F0F3FD3720FFF749F906462D
:102E30000EB13046D0E74FF0FF30C4490860402063
:102E40004860602088600220C8600020086101207E
:102E50004861084603F007FE0020BA4908600D20CB
:102E60004860402088600020C8604FF4806008619E
:102E7000084603F0CCFD0D20FFF722F906460EB1FF
:102E80003046A9E70EE04FF4004003F053FE48B18E
:102E9000002504E003F00DFE44F825006D1C082D0C
:102EA000F8D32034AA48006840F22A61084000287C
:102EB000E9D0082003F03EFE28B1082003F045FECB
:102EC0000426304688E7022003F034FE28B10220B1
:102ED00003F03BFE022630467EE7202003F02AFE68
:102EE00028B1202003F031FE0626304674E74FF467
:102EF000007003F01FFE30B14FF4007003F025FEA8
:102F00000726304668E74FF0FF3504E003F0D1FDB7
:102F10002060241D6D1E4FF4001003F00BFE08B15D
:102F2000002DF3D140F2FF5003F00FFE304653E77F
:102F300070B50446002600258648FFF741FF064687
:102F40000EB1304670BD83480078850925708148F0
:102F50000078C0F3401565707E488578280260804F
:102F60007C48C5786088284360807A4805792806BF
:102F7000606078484579606840EA0540606075485F
:102F80008579606840EA052060607248C5796068AC
:102F9000284360606F48057A2572457A6572807AA9
:102FA0000509A5726B48C57A2802A0816948057B8E
:102FB000A0892843A0816748407B8508A5736548A0
:102FC000407B00F00305E5733046BBE72DE9F04197
:102FD00007460D461446002600205F4908705F49E9
:102FE00008605F4908605A49083908605D48006810
:102FF000022801D104026D0A524804601020514990
:103000004860402088600020C8604FF480600861FC
:10301000084603F0FCFC1020FFF752F8064616B1F4
:103020003046BDE8F0814FF0FF304849086008465F
:103030004460902088600220C86000200861012060
:103040004861084603F00FFD3E48056011203D49E8
:103050004860402088600020C8604FF480600861AC
:10306000084603F0D4FC1120FFF72AF806460EB1FB
:103070003046D6E7012140F22A3003F04AFD012014
:1030800003F043FD2146384600F0B0FD3046C8E766
:103090002DE9F04180460D4614461E4600270020CB
:1030A0002D4908702D49086001202D490860002035
:1030B0002749083908602B480068022801D104021A
:1030C0006D0A2048046010201E4948604020886036
:1030D0000020C8604FF480600861084603F097FC48
:1030E0001020FEF7EDFF074617B13846BDE8F08126
:1030F0004FF0FF301549086006FB04F0486090204F
:1031000088600220C86000200861012048610846EC
:1031100003F0A9FC0B48056012200A4948604020D2
:1031200088600020C8604FF480600861084603F0A2
:103130006EFC1220FEF7C4FF0746AFB13846D5E754
:1031400000040240D807002078000020EC0700208F
:10315000342C014060070020800000208400002003
:103160007C00002074000020012140F22A3003F08E
:10317000D0FC012003F0C9FC06FB04F1404600F03E
:1031800035FD3846B2E710B500240020F949086043
:103190000C204860402088600020C8604FF48060A8
:1031A0000861084603F033FC0C20FEF789FF044653
:1031B000204610BD70B500256C1E00E0641EEE4870
:1031C000006838B9ED48006820B9ED48007808B9C2
:1031D000002CF3D10020E8490860441E00E0641E82
:1031E000E848006800F4005008B1002CF7D1E64828
:1031F0000068012802D1FFF7C6FF05460CB905B9E2
:10320000042540F2FF5003F0A0FCDD48007810B127
:10321000DB48007870BD2846FCE72DE9F041074601
:103220000D46144600260020D5490870D349086091
:10323000D5490860D34908390860D4480068022895
:1032400001D104026D0ACB4804601020C9494860CE
:10325000402088600020C8604FF480600861084604
:1032600003F0D5FB1020FEF72BFF064616B13046C3
:10327000BDE8F081BF4805601820BE494860402085
:1032800088600020C8604FF480600861084603F041
:10329000BEFB1820FEF714FF06460EB13046E7E7E6
:1032A0004FF0FF30BA4908600846446090208860BB
:1032B0000020C860086101204861084603F0D3FB84
:1032C000012140F22A3003F024FC2146384600F068
:1032D0004AFC012003F019FC3046C9E72DE9F04112
:1032E00080460F4615461E4600240020A44908705B
:1032F000A24908600120A44908600020A1490839BA
:103300000860A2480068022801D105027F0A994896
:103310000560102097494860402088600020C86000
:103320004FF480600861084603F071FB1020FEF73F
:10333000C7FE044614B12046BDE8F08195480088D8
:1033400000048C49086037204860402088600020D5
:10335000C8604FF480600861084603F058FB3720CE
:10336000FEF7AEFE04460CB12046E5E78148066054
:10337000172080494860402088600020C8604FF4D2
:1033800080600861084603F042FB1720FEF798FEB4
:1033900004460CB12046CFE77648076019207549EE
:1033A0004860402088600020C8604FF48060086159
:1033B000084603F02CFB1920FEF782FE04460CB1F0
:1033C0002046B9E74FF0FF307149086006FB05F071
:1033D0004860902088600020C86008610120486132
:1033E000084603F040FB012140F22A3003F091FB34
:1033F000012003F08AFB06FB05F1404600F0B3FB19
:10340000204699E770B500256C1E00E0641E5A48FE
:10341000006838B95948006820B95948007808B997
:10342000002CF3D1002054490860441E00E0641EC3
:103430005448006800F4805008B1002CF7D152487D
:103440000068012802D1FFF79EFE05460CB905B9B8
:10345000042540F2FF5003F078FB4948007810B192
:103460004748007870BD2846FCE74648006800F4ED
:10347000405008B1012070470020FCE77CB50446AD
:10348000002500200190009042480088000439493E
:1034900008600D204860402088600020C8604FF41C
:1034A00080600861084603F0B2FA36480068009070
:1034B00002E0344800680090009800F045000028C1
:1034C000F7D0009800F0040028B10325042003F091
:1034D0003CFB28467CBD009800F0010028B1012586
:1034E000012003F032FB2846F4E703F0ACFA009029
:1034F00000980D2802D010252846EBE740F2FF5037
:1035000003F023FB002003F0A3FA01900198C0F31D
:103510004320207020490198084008B92846D9E77F
:10352000019800F0004008B11C20D3E7019800F09A
:10353000804008B10920CDE7019800F0005008B1A3
:103540000A20C7E7019800F0805008B10B20C1E7BE
:10355000019800F0006008B10C20BBE7019800F072
:10356000806008B10D20B5E7019800F08070A8B127
:103570000E20AFE7D807002088000020840000203C
:1035800080000020342C01407C00002074000020CA
:10359000EC0700207800002008E0FFFD019800F40F
:1035A000000008B10F2095E7019800F4800008B1F1
:1035B00010208FE7019800F4001008B1112089E76E
:1035C000019800F4801008B1122083E7019800F4FC
:1035D000002008B113207DE7019800F4802008B195
:1035E000142077E7019800F4003008B1152071E746
:1035F000019800F4803008B116206BE7019800F4C0
:10360000004008B1172065E7019800F4804008B138
:1036100018205FE7019800F4005008B1192059E71D
:10362000019800F0080008B11A2053E7284651E736
:103630002DE9FC4106460F4600240025002001909C
:1036400000907B484068202101EA105018B92524D9
:103650002046BDE8FC8177480068C0B2801C7649EE
:10366000B1FBF0F00190002003F0F2F900F00070DF
:1036700010B10E242046ECE770480068022801D102
:10368000760A7F0A6D48006838B16C4800680128E6
:1036900003D06A48006802282BD1694806602020C0
:1036A00067494860402088600020C8604FF480600F
:1036B0000861084603F0ABF92020FEF701FD04463F
:1036C0000CB12046C5E75E48076021205C49486090
:1036D000402088600020C8604FF480600861084680
:1036E00003F095F92120FEF7EBFC04460CB12046CF
:1036F000AFE70020524908602620486040208860DB
:103700000020C8604FF480600861084603F07FF92C
:103710002620FEF7D5FC04460CB1204699E700258B
:1037200000E06D1C01988542FBD36846FFF7A6FEBA
:1037300004464FF0FF3504E06846FFF79FFE04465D
:103740006D1E45B13CB99DF800000728F4D09DF8E6
:1037500000000628F0D020467BE710B54FF48070BB
:1037600003F0F7F950B10020364908704FF480702B
:1037700003F0FAF901203449086037E0022003F031
:10378000E8F930B1022003F0EFF902202D4908706A
:103790002CE0082003F0DDF930B1082003F0E4F953
:1037A00004202849087021E0202003F0D2F930B12C
:1037B000202003F0D9F906202249087016E01020D5
:1037C00003F0C7F930B1102003F0CEF905201D49F0
:1037D00008700BE04FF4007003F0BBF930B14FF408
:1037E000007003F0C1F907201649087000214CF25F
:1037F0003A3003F08EF91348007810BD10B5134825
:10380000006800F0C05040B10120114908604FF03D
:10381000C2510E48583002F0C2F810BD01460020D7
:1038200002E04910421CD0B20129FAD170470000D1
:1038300040070020042C0140C0D401007400002087
:10384000D80700208000002084000020006402408F
:10385000880000201CB50446FE4951F824000121CF
:1038600002F062FFFC4830F81400009001208DF84F
:10387000040000208DF8060001208DF807000220CA
:103880008DF80500F54951F82400694602F006FD5F
:103890001CBDF14931F81010F04A52F82020118374
:1038A0007047ED4931F81010EC4A52F8202051834E
:1038B0007047EA4951F820104969E74A32F8102068
:1038C0005140E64A52F820205161704730B585B02A
:1038D00004460D46E24951F82400012102F024FF7C
:1038E0000121880302F064FF00208DF810008DF89C
:1038F0001300DC4830F814000390DB4951F8240031
:1039000003A902F0CBFC012D24D1D84A115DD84A7D
:10391000105D03F03FFBD74830F814000190002001
:103920008DF8080008208DF8090001208DF80A00A4
:1039300001A802F0C1F8D048005D8DF800000F200A
:103940008DF801008DF8020001208DF80300684613
:1039500001F09FFD05B030BD10B50446C14A32F8F4
:103960001410C14A52F8240002F0FAFC10BD7CB5D4
:1039700004460D46C14951F82410C14A52F824208A
:1039800041EA0200012102F0CFFEBE4951F82400B5
:10399000012102F00DFFBC4B13F81420BB4B33F890
:1039A0001410BB4B53F8240002F003FDB94B13F87D
:1039B0001420B94B33F81410B84B53F8240002F01C
:1039C000F8FC00208DF8060001208DF80700022089
:1039D0008DF80400B24830F81400009002208DF8F1
:1039E0000500AB4951F82400694602F057FC02205B
:1039F0008DF80400AB4830F814000090A74951F846
:103A00002400694602F04AFCA74951F824002946DF
:103A100001F07AFBA44951F82400012101F0FCFBDC
:103A20007CBD1CB5002002F0E5FF002002F0E5FFA0
:103A300002F0B8FF00214FF4006002F0B9FE00224E
:103A400008219A4802F0B5FC00220921974802F0AB
:103A5000B0FC00220A21954802F0ABFC00220B21A9
:103A6000924802F0A6FC00220C21904802F0A1FC32
:103A7000002202218E4802F09CFC4FF470600090FE
:103A800000208DF804008DF807006946874802F091
:103A900005FC042000906946854802F0FFFB4FF4C6
:103AA000805000906946814802F0F8FB1CBD1CB5AF
:103AB00001210E2002F038FE0C2208217B4802F082
:103AC00078FC0C220921794802F073FC0C220A21AF
:103AD000764802F06EFC0C220B21744802F069FC5F
:103AE0000C221146714802F064FC0C22022170483D
:103AF00002F05FFC4FF47060009001208DF805002B
:103B000002208DF8040000208DF8060001208DF8B9
:103B100007006946654802F0C1FB04200090694631
:103B2000634802F0BBFB4FF48050009000208DF8FA
:103B3000070069465D4802F0B1FB4FF40040009079
:103B400000208DF8040001208DF8070069465948CF
:103B500002F0A4FB0121C80202F02AFE012188051F
:103B600002F0E2FD1CBD30B58FB004460D464FF0AB
:103B7000FA51514801F013FF00214F4801F096FE21
:103B80004D4801F0B7FD4FF0006000904B480190A8
:103B90000294402003900020049005904FF4806030
:103BA00006908000079080000890002009904FF454
:103BB00040300A9004200B9003200C904FF400003A
:103BC0000D9080100E9069463B4801F035FE0122B1
:103BD0001021394801F0F7FE2021374801F07CFE22
:103BE0000121354801F062FE0FB030BD30B58FB015
:103BF00004460D464FF0FA512F4801F0D0FE002147
:103C00002D4801F053FE2C4801F074FD4FF0006088
:103C100000902A480190029400200390049005909F
:103C20004FF480600690800007908000089000208C
:103C300009904FF440300A9004200B9003200C9020
:103C40004FF400000D9080100E9069461A4801F064
:103C5000F3FD35E0349600082C9600088C00002017
:103C600048960008449600089C0000204F960008E3
:103C70004E9600084C960008509600085C96000886
:103C800064960008549600087C9600087496000814
:103C9000A80000208096000878960008B000002058
:103CA0006C96000870960008A000002000080240F2
:103CB000000C02400004024058640240802C014085
:103CC00001221021064801F07EFE2021044801F067
:103CD00003FE0121024801F0E9FD0FB030BD0000F4
:103CE0005864024070471CB5FFF7FCFF0121042017
:103CF00002F029F8042001F05FFF4CF203700090FD
:103D000000208DF804008DF807006946F94802F09C
:103D1000C5FA00221146F74802F04BFB00220121B0
:103D2000F44802F046FB00220821F24802F041FB71
:103D300000220921EF4802F03CFB00220A21ED4855
:103D400002F037FB00220E21EA4802F032FB00228B
:103D50000F21E84802F02DFB4FF680700090694675
:103D6000E54802F09BFA00220721E34802F021FB1C
:103D700000220821E04802F01CFB00220921DE4855
:103D800002F017FB00220A21DB4802F012FB00229E
:103D90000B21D94802F00DFB00220C21D64802F07D
:103DA00008FB00220D21D44802F003FB00220E2163
:103DB000D14802F0FEFA00220F21CF4802F0F9FAB2
:103DC0004FF23F0000906946CC4802F067FA0022AB
:103DD0001146CA4802F0EDFA00220121C74802F05C
:103DE000E8FA00220221C54802F0E3FA002203218A
:103DF000C24802F0DEFA00220421C04802F0D9FADB
:103E000000220521BD4802F0D4FA00220C21BB4853
:103E100002F0CFFA00220D21B84802F0CAFA0022BF
:103E20000E21B64802F0C5FA00220F21B34802F075
:103E3000C0FA3F2000906946B14802F02FFA0022F4
:103E40001146AF4802F0B5FA00220121AC4802F059
:103E5000B0FA00220221AA4802F0ABFA00220321A4
:103E6000A74802F0A6FA00220421A54802F0A1FA10
:103E700000220521A24802F09CFA4FF46050009005
:103E800069469C4802F00AFA00220B21994802F088
:103E900090FA00220C21974802F08BFA00220D21A3
:103EA000944802F086FA302000906946914802F06A
:103EB000F5F9002204218F4802F07BFA0022052147
:103EC0008C4802F076FA4FF48060009069468C4886
:103ED00002F0E4F900220C21894802F06AFA03207A
:103EE00000906946844802F0D9F9002211468248C0
:103EF00002F05FFA002201217F4802F05AFA1CBD4D
:103F00001CB501213A2002F00FFC4CF233700090F6
:103F100002208DF804008DF8050000208DF80600C1
:103F20008DF807006946734802F0B8F90C220021A9
:103F3000704802F03EFA0C2201216E4802F039FA74
:103F40000C2204216B4802F034FA0C220521694846
:103F500002F02FFA0C220821664802F02AFA0C22FD
:103F60000921644802F025FA0C220A21614802F076
:103F700020FA0C220E215F4802F01BFA0C220F21BE
:103F80005C4802F016FA4FF68070009069465A4875
:103F900002F084F90C220721574802F00AFA0C2299
:103FA0000821554802F005FA0C220921524802F076
:103FB00000FA0C220A21504802F0FBF90C220B21D6
:103FC0004D4802F0F6F90C2211464B4802F0F1F987
:103FD0000C220D21484802F0ECF90C220E21464833
:103FE00002F0E7F90C220F21434802F0E2F9082021
:103FF00000906946404802F051F90C2203213E48E6
:1040000002F0D7F98020009069463A4802F046F95C
:104010000C220A21374802F0CCF908200090012038
:104020008DF8040000208DF805008DF806008DF84D
:10403000070069462F4802F031F94FF40050009014
:1040400001208DF804008DF8050000208DF8060091
:104050008DF807006946274802F020F94FF4005117
:10406000244802F097F91CBD00B597B0012108461D
:1040700002F07CFB012001900020029009200390B7
:1040800000200490059006900790089009900A90EF
:1040900010200B9000200C900D900E900F9010901F
:1040A0004FF480501190002012901390149001A8AA
:1040B0001590169008A801F09AFD0121002001F04A
:1040C00042FE17B000BD0F49086070470E490880D6
:1040D00070474FF0C04210800B4A1180704701B505
:1040E00081B00020009042F2107101984843009086
:1040F0000FE00000000C02400010024000140240DB
:1041000000180240DC000020000010600098401EF3
:10411000009000980028F9D10CBD10B5FFF7F0FE13
:10412000FFF7A2FF0520FFF7DAFF0821FC4802F0A5
:1041300033F90A20FFF7D3FF0821F94802F02AF9E2
:1041400001211020FFF7C5FFB2211E20FFF7C1FF9C
:1041500006212820FFF7BDFF01210020FFF7B9FF4E
:1041600043F2EF010120FFF7B4FF4FF4C0610220DA
:10417000FFF7AFFF00211020FFF7ABFF0520FFF78F
:10418000AEFF46F630011120FFF7A3FF40F699116C
:104190001220FFF79EFF4FF460512620FFF799FF92
:1041A00033210720FFF795FF05210C20FFF791FF32
:1041B00000213020FFF78DFF40F203313120FFF75F
:1041C00088FF40F207413220FFF783FF40F20131C0
:1041D0003320FFF77EFF40F201313420FFF779FFF3
:1041E00040F203413520FFF774FF40F2077136209B
:1041F000FFF76FFF4FF480613720FFF76AFF4FF43E
:1042000020613A20FFF765FF4FF480513B20FFF714
:1042100060FF0A210D20FFF75CFF4FF438510E209C
:10422000FFF757FF4FF46F414420FFF752FF002183
:104230004520FFF74EFF40F23F114620FFF749FFB0
:1042400000214E20FFF745FF00214F20FFF741FFDF
:1042500000212220FFF73DFF002403E00020FFF7AC
:1042600035FF641CB4F5963FF8D3AE48FFF72BFF3B
:1042700010BD10B503460C4619464E20FFF729FF26
:1042800021464F20FFF725FF10BD01464FF0C040EB
:104290000180A5480088704722204FF0C041088067
:1042A0007047A1480088704710B500210846FFF705
:1042B000E0FFFFF7F1FF002404E04FF478409A4953
:1042C0000880641CB4F5C84FF7D304E04FF4FC60D9
:1042D00095490880641CB4F5484FF7D303E01F20CC
:1042E00091490880641CB4F5963FF8D310BD03B51E
:1042F000BDF800008D490880BDF804008C49088095
:104300000CBD8A4A12880280894A12880A80704746
:1043100001B5BDF800008549088008BD01B5BDF8AC
:1043200000008349088008BD7047824800687047D4
:104330002DE9F04307468846164600240025A1468D
:10434000B94649464046FFF794FF00BF39E0FFF702
:10435000A3FF002527E07748006880880C2190FBA8
:10436000F1F0C10080208840284136F81410084040
:1043700020B97048006880880C280ADD36F81400DF
:104380000121A940084048B96A48006880880C2883
:1043900004DD67480088FFF799FE03E06348008862
:1043A000FFF794FE6D1C634800688088A842D2D84D
:1043B00009F101001FFA80F949464046FFF759FF0D
:1043C000641C5C480068C088A042C0D8BDE8F08387
:1043D00070B505460E461446A4F12000C4B25548F7
:1043E0000068016853480068C088604301EB4002E0
:1043F00031462846FFF79CFF70BD30B505460024C6
:1044000000BF202221462846FFF7E2FF4948006806
:104410008088204484B2B4F5A07FF2DB30BD30B593
:104420000446002500210846FFF723FFFFF734FF6D
:1044300000BF02E03C4804806D1CB5F5963FF9D3FF
:1044400030BD2DE9F04180460E4615461F4600243A
:1044500031464046FFF70DFF5FB9FFF71DFF00BF74
:1044600004E032480088FFF731FE641CAC42F8D308
:1044700010E000240CE0FFF70FFF2C480088FFF746
:1044800025FE701C86B231464046FFF7F2FE641CE2
:10449000AC42F0D3BDE8F08130B504460D46002CA7
:1044A00006DBB4F5A07F03DA002D01DBEF2D00DD84
:1044B00030BDA9B2A0B200230122FFF7C2FF00BFA6
:1044C000F6E770B506460C4600250EE02278294630
:1044D0003046FFF77DFF174800688088284485B282
:1044E000B5F5A07F00DB03E0641C20780028EDD147
:1044F00000BF70BD2DE9F04104460D4616461F462B
:104500004FF0000821464520FFF7E3FDA019B0F564
:10451000A07F11DB40F23F114620FFF7DAFD10E0EB
:10452000000C0240BC00002000001060E0000020F1
:10453000E2000020DC000020A01981B24620FFF735
:10454000C8FDE819F02802DB4FF46F4802E0E819D3
:104550004FEA002848EA04081FFA88F14420FFF7D0
:10456000B8FD29462046FFF784FEBDE8F08170477C
:10457000F0B505460E4617461C4601232246314635
:104580002846FFF75EFFE919491E88B2012322463B
:104590003146FFF756FF00233A4631462846FFF7DB
:1045A00050FF301981B200233A462846FFF749FFF1
:1045B000F0BD2DE9F04306460F4690460320A0EBE0
:1045C0004809002445466EE07A1991B2321990B23A
:1045D000FFF74FFEFFF760FEFE480088FFF776FD0D
:1045E0007A1B91B2321990B2FFF743FEFFF754FEE7
:1045F000F8480088FFF76AFD7A1991B2321B90B231
:10460000FFF737FEFFF748FEF2480088FFF75EFD30
:104610007A1B91B2321B90B2FFF72BFEFFF73CFEE4
:10462000EC480088FFF752FD3A1991B2721990B226
:10463000FFF71FFEFFF730FEE6480088FFF746FD54
:104640003A1B91B2721990B2FFF713FEFFF724FEE6
:10465000E0480088FFF73AFD3A1991B2721B90B218
:10466000FFF707FEFFF718FEDA480088FFF72EFD78
:104670003A1B91B2721B90B2FFF7FBFDFFF70CFEE5
:10468000D4480088FFF722FDB9F1000F04DA0620B4
:1046900000EB8400814405E0601B0A2101EB8000EF
:1046A00081446D1E641CAC428ED9BDE8F08370B5A8
:1046B00006460024002540F23F110020FFF7D9FDF7
:1046C000FFF7EAFD00BF14E000250FE056F82400D4
:1046D0000121A940084020B9BF480088FFF7F6FC37
:1046E00003E0BC480088FFF7F1FC6D1C202DEDD3E2
:1046F000641CB4F5166FE7D370BD7047F0B506467D
:104700000D4617461C46B3480088FFF701FE0023FC
:104710003A4629463046FFF794FE281981B2002315
:104720003A463046FFF78DFE0123224629463046A1
:10473000FFF787FEF119491E88B201232246294658
:10474000FFF77FFE601E84B2681C85B2A248008815
:10475000FFF7DEFD07E029466A1C95B200233A46C2
:104760003046FFF76EFE2000A4F101018CB2F2D1B9
:1047700098480088FFF7CCFDF0BD2DE9F0430646D0
:104780000F4690460320A0EB480900244546924876
:104790000088FFF7BDFD34E08DB16B041A0C7B1966
:1047A00099B2331B98B20023FFF74BFE6B041A0C2F
:1047B0007B1999B2331998B20023FFF742FE8CB1EE
:1047C00063041A0C3B1999B2731B98B20023FFF7CC
:1047D00038FE63041A0C3B1999B2731998B200237E
:1047E000FFF72FFEB9F1000F04DA062000EB84007A
:1047F000814405E0601B0A2101EB800081446D1EAD
:10480000641CAC42C8D973480088FFF781FD42465A
:1048100039463046FFF7CDFEBDE8F0832DE9F04F75
:1048200089B005460E4691469A460027B8460020B4
:10483000089007900690059004900390002483460A
:10484000029001900090A9EB0500002802DDA9EB81
:10485000050001E0A5EB090007B2AAEB060000285D
:1048600002DDAAEB060001E0A6EB0A000FFA80F8D1
:1048700028B2089030B20790A94503DB01200690CA
:10488000059003E04FF0FF3006900590B24503DB42
:1048900001200490039003E04FF0FF300490039058
:1048A00047450DDB0020069003903C46384607EB59
:1048B000D07149100FFA81FBCDF8088001970CE008
:1048C0000020059004904446404608EBD071491002
:1048D0000FFA81FB0297CDF804800020009025E0BC
:1048E000DDE90710FFF7D8FD029858440FFA80FB66
:1048F000A3450DDBABEB04000FFA80FB069908988B
:10490000084400B2089004990798084400B2079040
:1049100005990898084400B208900399079808443C
:1049200000B207900098401C00B20090DDE9000141
:104930008842D5DD09B0BDE8F08F2DE9F04104468D
:104940000D4600260027022D01DABDE8F08110E0B7
:10495000B4F90060B4F90270241DB4F802C01FFA63
:104960008CF3B4F800C01FFA8CF2B9B2B0B2FFF702
:1049700055FF681E80B20500EAD100BFE5E72DE9CA
:10498000F04704460F46904600250026A146022F18
:1049900001DABDE8F087B4F90050B4F9026014E020
:1049A000241DB4F802C0B4441FFA8CF3B4F800C05C
:1049B000AC441FFA8CF2B1B2A8B2FFF72FFF2088E7
:1049C000284405B26088304406B2781E80B20700E1
:1049D000E6D103E0E0000020E2000020B8F1000F83
:1049E0000BD0B3B2AAB2B9F802C01FFA8CF1B9F871
:1049F00000C01FFA8CF0FFF711FF00BFC9E770B5C8
:104A000004460D4629462046FFF797FF04EB85062E
:104A100036F8026CB3B204EB850636F8046CB2B219
:104A20006688B1B22688B0B2FFF7F8FE70BD70B5E7
:104A300004460D46002229462046FFF7A0FF70BD20
:104A400070B504460D46012229462046FFF797FF20
:104A500070BD2DE9F04F2DED048BE9B00546884679
:104A6000002068908246002600240027039081469B
:104A7000834602900190288880B2834681466888E8
:104A800080B201900290012417E005EB8400408879
:104A90001FFA80FACA4500DAD146DA4500DDD3466E
:104AA00035F8240086B20298864200DA0296019810
:104AB000864200DD0196601C84B24445E5DB7848FF
:104AC0000088FFF725FC029EDCE000206890A8F13A
:104AD000010087B2002462E0304604F0FAFB41ECAA
:104AE000180B35F9240004F0E3FB41EC190B53ECEF
:104AF000182B04F0FBFB0FD2304604F0EAFB41EC2C
:104B0000180B35F9270004F0D3FB41EC190B53ECDB
:104B1000182B04F0FFFB1FD9304604F0DAFB41EC00
:104B2000180B35F9270004F0C3FB41EC190B53ECCB
:104B3000182B04F0DBFB2FD2304604F0CAFB41EC0B
:104B4000180B35F9240004F0B3FB41EC190B53ECBE
:104B5000182B04F0DFFB1FD805EB8700B0F902002B
:104B600005EB8401B1F90210401A35F92410711ACD
:104B7000484335F9271035F92420891A90FBF1F0C4
:104B800005EB84014988084482B26898411C89B2C7
:104B9000689104A921F810202746601C84B244457E
:104BA0009ADB00241CE004A830F8141004AA601C4E
:104BB00032F81000814211DD04A830F8140003908F
:104BC00004A9601C31F8100021F81400611C03983E
:104BD00022F8110024B1601E84B201E0601C84B28E
:104BE0006898401EA042DEDC002445E004A830F8AE
:104BF0001400584500DB42E004A9601C31F81000A5
:104C0000484537DD04A830F81400484502DA04A806
:104C100020F8149004A9601C31F81000584502DDFA
:104C2000601C21F810B01E480088FFF771FB04AB30
:104C3000601C33F8100033F81430C01A82B204AB91
:104C4000601C33F8101000233046FFF7FAFB1548BC
:104C50000088FFF75DFB04AA601C32F8100001B267
:104C600030B2FFF719FC04A830F8140001B230B2DA
:104C7000FFF712FCA01C84B268988442B6DB00BF28
:104C8000701C86B201988642FFF61FAF0548008867
:104C9000FFF73EFB69B0BDEC048BBDE8F08F000070
:104CA000E2000020E000002010B504464FF48050E0
:104CB000EA49086009E0E9490868411EE74A1160CD
:104CC00018B9FBF7E2FCC0B210BD0221E44802F0C3
:104CD00018F90028EFD02146E14802F0DBF84FF444
:104CE0008050DE49086009E0DC490868411EDB4A63
:104CF000116018B9FBF7C9FCC0B2E5E70121D8483B
:104D000002F0FFF80028EFD0D54802F0C0F8C0B29A
:104D1000DAE770B505460E461446012C01DD46F073
:104D200040060821CF4801F037FB3046FFF7BCFFB3
:104D300005E02878FFF7B8FF601E84B26D1C012CD7
:104D4000F7DA0821C74801F025FB70BD00B587B030
:104D50000121080301F02CFD0121084601F0E4FCCB
:104D60000121102001F0E0FC0121102001F0DCFC09
:104D70000121102001F0D8FC05221146BA4801F0AB
:104D800018FB05220621B84801F013FB0522072174
:104D9000B54801F00EFB02208DF8180000208DF8B8
:104DA0001A0002208DF81B008DF8190020200590B4
:104DB00005A9AD4801F072FA8020059005A9AA481E
:104DC00001F06CFA4020059005A9A74801F066FAA9
:104DD000A34801F0D5FE0020ADF80000ADF80400B6
:104DE000ADF80600ADF808004FF40070ADF80A0009
:104DF0000820ADF80C000020ADF80E000720ADF83B
:104E000010004FF48270ADF802006946944801F03A
:104E1000DDFE0121924801F0BCFF08200590012031
:104E20008DF8180000208DF81A0002208DF8190066
:104E300005A98C4801F032FA08218A4801F0AAFA43
:104E40000120059000208DF818008DF81A0002202E
:104E50008DF8190000208DF81B0005A9814801F08C
:104E60001DFA0220059005A97E4801F017FA07B047
:104E700000BD38B5044600200090FFF767FF60785A
:104E800021780843E178084321790843A178084351
:104E90000090012220216846FFF73BFF38BD70B526
:104EA00006460C461546012D02DD44F0C00401E023
:104EB00044F0800408216B4801F06EFA2046FFF7A9
:104EC000F3FE06E00020FFF7EFFE3070681E85B2AB
:104ED000761C002DF6DC0821624801F05BFA70BDFB
:104EE00038B5044600200090012221216846FFF7D2
:104EF000D6FF9DF8000000F0D00000902078617887
:104F00000843A17808439DF800100843009001224F
:104F100021216846FFF7FDFE38BD38B50446002064
:104F20000090012238216846FFF7B9FF20786178A8
:104F30000843A17808430090012238216846FFF712
:104F4000E8FE38BD38B50446012220216846FFF747
:104F5000A6FF9DF8000000F0BF0000909DF8000043
:104F600020430090012220216846FFF7D2FE38BD81
:104F700038B50446012220216846FFF790FF9DF8CE
:104F8000000000F07F0000909DF80000204300909A
:104F9000012220216846FFF7BCFE38BD38B5044623
:104FA000012220216846FFF77AFF9DF8000000F0FB
:104FB000DF0000909DF80000204300900122202196
:104FC0006846FFF7A6FE38BD08B5012221216846D4
:104FD000FFF765FF9DF8000040F0400000900122BF
:104FE00021216846FFF795FE08BD3EB50546002421
:104FF000012220216846FFF752FF0622292101A83D
:10500000FFF74DFF9DF8000000F0200010B12028B0
:1050100020D10FE000240AE001A911F8140040B2E9
:1050200000EBC000400028602D1D601CC4B2032CA2
:10503000F2DB10E000240AE001A911F8140040B2EC
:1050400000EBC000C00028602D1D601CC4B2032C02
:10505000F2DB00E000BF00BF3EBD0000E400002026
:1050600000300140001002400000024010B504462C
:10507000F748844208D10121102001F001FC0021F1
:10508000102001F0FDFB3EE0F248844209D10121ED
:10509000480401F0E4FB00214FF4003001F0DFFB95
:1050A00031E0ED48844209D10121880401F0D7FBA9
:1050B00000214FF4802001F0D2FB24E0E748844235
:1050C00009D10121C80401F0CAFB00214FF40020DE
:1050D00001F0C5FB17E0E248844209D1012108052F
:1050E00001F0BDFB00214FF4801001F0B8FB0AE095
:1050F000DC48844207D10121202001F0C1FB0021BE
:10510000202001F0BDFB10BD2DE9FF4705460E46EE
:105110000024A14600BFA046B08900B100BF2C8A80
:1051200024F44054F08804432C82AC8941F20C6092
:105130008443B08831890843718908430443AC81B2
:10514000AC8A24F44074B0890443AC82684601F010
:1051500056FABF48854202D0C248854202D1DDF8E6
:105160000C9001E0DDF80890A88900F4004040B1FF
:1051700009EBC90000EB091031684900B0FBF1F7F9
:1051800007E009EBC90000EB091031688900B0FBAA
:10519000F1F76420B7FBF0F004012009642101FB62
:1051A0001078A88900F4004040B1322000EBC8001C
:1051B000B0FBF1F000F00700044308E0322000EB00
:1051C00008106421B0FBF1F000F00F0004432C81C3
:1051D000BDE8FF874FF41651016000218180C18036
:1051E00001810C21418100218181704710B5024667
:1051F0000020108A20F470600B884C8823438C8830
:105200002343CC8823431843108210BD0021018022
:1052100041808180C180704721B1828942F400526F
:10522000828104E082894DF6FF731A4082817047C3
:10523000028B02F47F420283028B0A43028370478F
:1052400021B1828942F40042828103E08289C2F363
:105250000E028281704721B1828A42F4006282820A
:1052600004E0828A4FF2FF731A4082827047C1F3D2
:1052700008028280704701468888C0F308007047A2
:10528000028A4FF6F0731A400282028A0A430282AF
:10529000704721B1828942F00202828104E0828952
:1052A0004FF6FD731A408281704782894FF2FF7377
:1052B0001A40828182890A4382817047028A4FF6AE
:1052C000DF731A400282028A0A430282704721B1C8
:1052D000028A42F48042028204E0028A4BF6FF73A3
:1052E0001A4002827047818941F001018181704733
:1052F00021B1828A42F00802828204E0828A4FF65B
:10530000F7731A4082827047028BD2B20283028BFB
:1053100042EA01220283704721B1828A42F02002D0
:10532000828204E0828A4FF6DF731A4082827047DD
:1053300021B1828A42F01002828204E0828A4FF612
:10534000EF731A4082827047828A4FF6FB731A40CD
:105350008282828A0A438282704721B1828A42F025
:105360000202828204E0828A4FF6FD731A40828232
:1053700070471AB1838A0B43838202E0838A8B438E
:1053800083827047F0B503460024002600250020E4
:1053900040F66A17B94200D100BF1846C1F3421463
:1053A00001F01F06012707FA06F5012C01D10C3088
:1053B00004E0022C01D1103000E014301AB107686B
:1053C0002F43076002E00768AF430760F0BD024665
:1053D0000020B1F5007F00D100BF13880B400BB156
:1053E000012000E00020704701F40072B2F5007F58
:1053F00000D100BFCA430280704770B50246002446
:1054000000230025002040F66A16B14200D100BFFB
:10541000C1F3421501F01F03012606FA03F3012D23
:1054200002D19689334006E0022D02D1168A33401C
:1054300001E0968A33400C12012606FA04F416881D
:10544000344013B10CB1012000E0002070BD000019
:10545000001001400044004000480040004C004063
:10546000005000400014014010B50022002340F617
:105470006A14A14200D100BF0A1201249440A3B2D1
:10548000DC43048010BD000032490143324A116000
:10549000704770B5002100230F22C4781CB32E4C36
:1054A000246804F4E064C4F5E064C4F30721C1F1A6
:1054B0000404E3B20A4144789C40E1B28478144089
:1054C00021430C07210E254C05786155047804F022
:1054D0001F050124AC4005786D11AD0005F1E025F4
:1054E000C5F8004109E0047804F01F050124AC4030
:1054F0001B4D0678761145F8264070BD194A0A40C2
:105500000243154B1B1F1A60704739B1124A121D16
:1055100012680243104B1B1D1A6006E00E4A121D52
:10552000126882430C4B1B1D1A607047042808D177
:105530004FF0E021096941F004014FF0E0221161D0
:1055400007E04FF0E021096921F004014FF0E0226B
:10555000116170470000FA050CED00E000E400E086
:1055600080E100E080FFFF1F002061490860C86003
:105570001F20486100208861C86108624862704746
:1055800000215B4A126844F201039A43584B1A60A7
:105590001A46116840F6F2729143028843881A4312
:1055A00083881A43C3881A4303891A4343891A43D9
:1055B00083891A4311434E4A1160704700210180CC
:1055C00041808180C1800181418181817047418812
:1055D000028841EA0241464A1162C188828841EA52
:1055E0000241434A5162704730B14149096841F074
:1055F00004013F4A116005E03D49096821F00401BA
:105600003B4A116070470178427841EA0221827872
:1056100041EA0241C27841EA0261354A916170472C
:1056200030B13349096841F00801314A116005E0A1
:105630002F49096821F008012D4A1160704730B1E7
:105640002B49096841F48041294A116005E0284945
:10565000096821F48041264A1160704730B124491D
:10566000096841F00101224A116005E020490968FA
:1056700021F001011E4A116070471D48806A704781
:1056800029B11B4AD2680243194BDA6006E0184A76
:10569000D268C3439BB21A40154BDA60704710B50D
:1056A0000146002000230A1312B9114CA36806E03A
:1056B000022A02D10E4C636801E00D4C236903EA13
:1056C00001040CB1012000E0002010BD0849486130
:1056D0007047014600200022054B1B6903EA0102C6
:1056E0000AB1012000E0002070470149486170477D
:1056F00000000550016821F00101016000210160F6
:1057000041608160C160016121214161DB498842C2
:1057100004D13D21D94A103A91608CE0D749183123
:10572000884205D14FF47461D44A103A916082E006
:10573000D2493031884205D14FF47411CF4A103A22
:10574000916078E0CD494831884205D14FF07461CD
:10575000CA4A103A91606EE0C8496031884204D16B
:10576000C749C64A103AD16065E0C44978318842D9
:1057700004D1C449C14A103AD1605CE0BF499031BC
:10578000884204D1C049BD4A103AD16053E0BB49B8
:10579000A831884205D14FF03D51B84A103AD16046
:1057A00049E0BA49884204D13D21B84A083A11601B
:1057B00041E0B6491831884205D14FF47461B34ACB
:1057C000083A116037E0B1493031884205D14FF4D1
:1057D0007411AE4A083A11602DE0AC494831884254
:1057E00005D14FF07461A94A083A116023E0A74936
:1057F0006031884204D1A249A44A121F11601AE004
:10580000A2497831884204D19E49A04A121F1160F2
:1058100011E09E499031884204D19B499B4A121F56
:10582000116008E09949A831884204D14FF03D51F8
:10583000964A121F1160704710B500220268944BFF
:105840001A40CC680B6823434C6923438C6923437B
:10585000CC6923430C6A23434C6A23438C6A234359
:105860004C6B23438C6B23431A430260426922F042
:105870000702D1E90B3423431A4342610B694360A9
:105880004B6883608B68C36010BD0021016041607C
:105890008160C160016141618161C16101624162F8
:1058A0008162C162016341638163704721B1026813
:1058B00042F00102026003E0026822F0010202608D
:1058C000704721B1026842F40042026003E00268BE
:1058D00022F400420260704721B1026842F02002C7
:1058E000026003E0026822F020020260704741601B
:1058F00070470146486880B2704722B1036843F49C
:105900000023036003E0036823F4002303600161C4
:10591000704721B1026842F48022026003E002680D
:1059200022F48022026070470AB1016100E0C16088
:105930007047014600200A6802F400220AB10120E3
:1059400000E000207047014600200A6802F00102D2
:105950000AB1012000E000207047014600204A699A
:1059600002F03800704730B503460A460020002494
:10597000464DAB4202D24149103901E0434910394A
:1059800002F000550DB14C6800E00C68414D2C4010
:1059900004EA02050DB1012000E0002030BD0246FE
:1059A0003A4B9A4202D23548103801E03748103855
:1059B00001F000531BB1374B0B40C36002E0354B85
:1059C0000B408360704710B501F080034BB122B1EA
:1059D000436943F08003436103E0436923F080039C
:1059E000436180290BD02AB1036801F01E042343D0
:1059F000036004E0036801F01E04A343036010BDCC
:105A000070B50246002000240025204EB24202D28A
:105A10001A4B103B01E01D4B103B1F4E0E4036B1A0
:105A20001E2606EAD124166806EA040502E0566935
:105A300006F0800501F000560EB15C6800E01C68BD
:105A4000144E344004EA010616B10DB1012000E005
:105A5000002070BD02460D4B9A4202D20748103812
:105A600001E00A48103801F000531BB1094B0B400C
:105A7000C36002E0074B0B40836070471060024038
:105A80003D000020400F002000003D201064024037
:105A90003F801CF07D0F7D0F3C0F3C0F00204449E0
:105AA0000860091D0860091D0860091D086041485B
:105AB0003F4914310860704700213D498279002A2E
:105AC0003AD00A46126803689A430B461A600A1DC8
:105AD000126803689A430B1D1A60027911440A6820
